:020000040800F2
:1000000028050020D90000084D2100080B20000819
:1000100000000000000000000000000000000000E0
:100020000000000000000000000000000D24000897
:1000300000000000000000004F2100080F2400080D
:10004000EB000008EB000008EB000008EB000008E4
:10005000EB000008EB000008EB000008EB000008D4
:10006000EB000008EB000008EB000008EB000008C4
:10007000EB000008EB000008EB000008EB000008B4
:10008000EB000008EB000008EB000008EB000008A4
:10009000EB000008EB000008EB000008EB00000894
:1000A000EB000008EB000008EB000008EB00000884
:1000B000EB000008EB000008EB000008EB00000874
:1000C0000448854600F0A8FB00480047E13D0008D1
:1000D000C046C04628050020044880470448004721
:1000E000FEE7FEE7FEE7FEE7FEE7FEE78F240008F7
:1000F000C100000830B50B46014600202022012433
:1001000009E00D46D5409D4205D31D469540491B4B
:100110002546954040191546521E002DF1DC30BD94
:10012000F0B51FB40646002082B005464024019178
:1001300000901BE0019922460F46304600F020F85F
:10014000049A059B801A994110D3104619462246FD
:1001500000F06AFA361A8F410197224601200021E9
:10016000009F00F061FA38184D4100902046641E4F
:100170000028DFDC019B00982946324607B0F0BD1D
:1001800010B5202A04DB0846203AD040002110BDDB
:100190000B46D340D0402024A21A91400843194670
:1001A00010BD03460B439B0703D009E008C9121F8B
:1001B00008C0042AFAD203E00B780370401C491CE3
:1001C000521EF9D27047D2B201E00270401C491EA3
:1001D000FBD270470022F6E710B513460A460446E4
:1001E0001946FFF7F0FF204610BD0000F0B50746A6
:1001F0000846584087B0C00F049048000E4659008A
:1002000040084908BC1A884105D2384631461E4686
:1002100017460B4602465800400810434DD0300D9B
:10022000039040055900400D490D0590401A029079
:10023000402873DA18030121000B090508430190D7
:1002400004980092002806D01146019A49420020E5
:10025000904100910190029840210A1A019900985A
:1002600000F0E2F905460C466B4607CB00F0ECF9CE
:10027000C0197141039A0E0D0023D71756401A4634
:100280007A40164344D0049A002A2DD0029A012ABB
:10029000039A15DC1205C01A914101263605001C8F
:1002A0007141D20F059ED2070093019202962A4611
:1002B000234600F02AFA07B0F0BD38463146FAE787
:1002C0001605234A0F46B218C01AB7410121090585
:1002D000001C4F4100187F41114618187941E20F68
:1002E00010436D19644113E0E2076D08154364087B
:1002F000C2071443039A01261205C01A914136051C
:10030000001C7141CE07400830434908C0185141D4
:100310002A46234600F0ECF9CDE7FFE704980122D6
:100320004000C117121A00238B4104983146C417AC
:10033000381AA141EEE730B40124E407634030BC31
:1003400054E730B40124E407614030BC4EE70000BC
:100350000000E0FFF0B51FB488B00B9909980024A5
:1003600048400999C00F490049080991C0070B99F5
:100370000090490049080B9109990898A64608433E
:100380001CD00B990A98084318D009980124400002
:10039000420D4800410D099824050003000B20433D
:1003A00009900B980003000B20430B9050181C4938
:1003B0004018002201901446104605E00020014636
:1003C0000DB0F0BD032801DA034600E003239C468C
:1003D000C11A0AAE0AE05F0008ADED5B4F00F75BA3
:1003E0007D430027AA187C41491C5B1E6145F2DD54
:1003F000410004AB5A522104120C0A43240C401C45
:100400000828DFDB01980290009970460191009066
:10041000059B049A0799069800F077F9D0E7000049
:100420000DFCFFFFF0B50C465C4085B0E40FE4071F
:1004300003944C000026640859009446490802467B
:100440000296224321D062460A431ED06200570D15
:100450004A000E032303550D012402462C492405AE
:10046000781B1B0B360B4018234326436146009034
:100470001C46501AB44103D30098401C009002E07F
:10048000921800985B41002803DA0020014605B06D
:10049000F0BD0020012109050746864611E06446AB
:1004A0001D46141BB54106D36546521BB341744625
:1004B00007430C43A646CD07400849082843921835
:1004C0005B4105460D43EAD11046184313D0604600
:1004D000194650407140084306D06046101AB34197
:1004E00006D20122002306E000220123DB0702E0FE
:1004F0000122D2435310009874460105381C614113
:10050000029C039D0019694100F0F2F8BFE700006A
:10051000FD0300000EB5C217C10F5040CA074018B6
:100520000021054B0293019200910A460B4600F010
:10053000ECF803B000BD0000330400000EB505491F
:100540000291002100910A460B46019100F0DDF86E
:1005500003B000BD3304000070B5CD0F4A0009039D
:100560000123090B1B0519430B4BED070024520D0A
:100570009A4201DA002070BD074B34339A4203DC03
:100580009A1AFFF7FDFD02E00449511888402C43F8
:10059000F1D0404270BD0000FF030000CDFBFFFF23
:1005A000C20FD207400040080BD0C10D0723DB016A
:1005B000C91840020905400A1143C2084007114307
:1005C000704700200146704710B5002904DB012464
:1005D000E40740428C412146002B04DB1C460123EA
:1005E000DB075242A3418B4200D1824210BD000082
:1005F000CB0FDB07490010B5490802460A4307D074
:100600000A0D07240903E401090B121B002A01DC6F
:10061000002010BDC900440F0C43C100E018D205F2
:10062000801800F024F810BD10B5202A04DB014624
:10063000203A9140002010BD914020239C1A03468F
:10064000E3401943904010BD10B5202A06DBCB17BC
:100650000846203A1041C1170B4306E00B461341F0
:10066000D0402024A21A91400843194610BD002909
:1006700004DA401C490001D140084000704770B4C2
:100680000024050C05D11024000402D1002921D03A
:100690001124050E01D100020834050F01D100011B
:1006A000241D850F01D18000A41C002801DB40001F
:1006B000641C002908D020252E1B0D46F540A140C2
:1006C00000D001212943084301061B1B000ADB1D42
:1006D00002D5002070BC7047DB051818801800296F
:1006E000F8DA401C4900F5D170BC40084000704762
:1006F00010B5002B08DA0024401C614192185B41C0
:100700001A4301D14008400010BDF0B51FB482B0BB
:1007100005460C0003D0084602F0D8F802E002F0CB
:10072000D5F820300246009021462846FFF77CFF8E
:10073000049B059A04460F4618431143084314D0FE
:10074000184610431BD0009840210A1A18460599F4
:10075000FFF716FD05460E46009A05990498FFF727
:1007600063FF084305D0012004E02046394607B066
:10077000F0BD0020C11705430E432C4337430099B9
:100780000E986305401A7905E40A00220C43FD0A1D
:100790000A3002D500200146E9E701051019694138
:1007A0000C9C0D9D00196941FFF7A2FFDFE70000D7
:1007B0004A0009030123090B1B0519430A4B10B515
:1007C000520D9A4202DA0020014610BD064B343326
:1007D0009A4203DC9A1AFFF7D3FC10BD034BD218E0
:1007E000FFF722FF10BD0000FF030000CDFBFFFF5D
:1007F00010B5002904DB0124E40740428C41214666
:10080000002B04DB1C460123DB075242A341994223
:1008100000D1904210BD0000064C0125064E05E0B7
:10082000E36807CC2B430C3C98471034B442F7D311
:10083000FFF74AFCBC410008DC410008704700009B
:1008400078B503460022E2E0012696400C68344069
:10085000002C7DD04D68012D08D04D68022D05D0AB
:100860004D68112D02D04D68122D18D19868560090
:100870000325B5400646AE4330465600CD68B54028
:10088000284398605868012595400646AE43304697
:1008900010264D6835402D09954028435860D8688A
:1008A00056000325B5400646AE43304656008D68D7
:1008B000B5402843D8604D68022D02D04D68122DF6
:1008C00015D1D508AE001D462035A8595507EE0EA6
:1008D0000F25B5400646AE4330465607F60E0D6965
:1008E000B5402843D508AD001E4620367051186823
:1008F00056000325B5400646AE4330460D79AD0798
:10090000AD0F5600B54028431860012636074D68E4
:100910003540B5427AD100BF404DAD69012635431F
:100920003E4EB5613546AD69ED07ED0F009500BF50
:1009300000BF3B4D9608B600A85995072E0F0F250E
:10094000B5400646AE4330460925ED06AB4200E011
:100950005CE001D1002514E0324DAB4201D101250C
:100960000FE0314DAB4201D102250AE02F4DAB42E1
:1009700001D1032505E02E4DAB4201D1042500E055
:1009800005259607360FB5402843254D9608B60035
:10099000A851284D28680546A54328460126360457
:1009A0004D683540B54202D1054625432846214DC4
:1009B000286068680546A5432846012676044D68E8
:1009C0003540B54202D1054625432846194D686099
:1009D000A8680546A5432846012636054D683540DA
:1009E000B54202D1054625432846124DA860E86865
:1009F0000546A5432846012676054D683540B54293
:100A000002D10546254328460A4DE860521C0D6870
:100A1000D540002D00D017E778BD0000001002403F
:100A2000080001400004004800080048000C00488D
:100A30000010004800040140002A01D0816100E05C
:100A40008162704701480068704700001C00002068
:100A500070B50446002C01D1012070BD14482168F6
:100A6000086014482168086021686068486021684F
:100A7000A0688860FFF7E6FF054606E0FFF7E2FFA3
:100A8000401B262801D90320E7E72068C06800281A
:100A9000F4D120680169E068814203D02168E068F0
:100AA000086102E00448216808600020D5E70000E2
:100AB000CCCC000055550000AAAA0000014602480F
:100AC0000A68106000207047AAAA00000348006866
:100AD0000349097840180149086070471C0000204C
:100AE0002400002010B5064800681021084304497E
:100AF0000860002000F006F800F02EF8002010BD7D
:100B00000020024070B50446104801787D20C000E6
:100B1000FFF7F0FA064631460D480068FFF7EAFA9B
:100B2000054601F055F9002801D0012070BD042CC4
:100B300007D200222146501E00F02EF8054804601E
:100B400001E00120F2E70020F0E70000240000208F
:100B5000280000202000002008B500BF0D48806953
:100B6000012108430B49886108468069C007C00F0E
:100B7000009000BF00BF00BF0846C06909040843D9
:100B80000449C8610846C06909040840009000BFD4
:100B900000BF08BD0010024070B504460D46164661
:100BA0002946204601F0C2FE70BD0000F8B504469B
:100BB00000260025012109042068084088427AD1D6
:100BC00000276048C0690903084000280DD100BF14
:100BD0005C48C06908435B49C8610846C0690904AC
:100BE0000840009000BF00BF012757480068FF2160
:100BF00001310840002816D1534800680843524983
:100C00000860FFF71FFF064606E0FFF71BFF801B8B
:100C1000642801D90320F8BD4B480068FF21013149
:100C200008400028F1D04748006A03210902084023
:100C30000546002D2DD060680840A84229D04148C3
:100C4000006A884305463F48006A012109040843B9
:100C50003C4908620846006A012109048843394971
:100C6000086208460562E807C00F002811D0FFF7A8
:100C7000E9FE064607E0FFF7E5FE801B33498842A0
:100C800001D90320C7E72F48006A02210840002845
:100C9000F1D02C48006A03210902884361680843A7
:100CA00028490862012F05D10846C0690904884314
:100CB0002449C86100BF2078C007C00F002807D0B2
:100CC0002048006B80088000A16808431D49086324
:100CD000022120680840022808D11A48006B03212D
:100CE00009048843E1680843164908632021206805
:100CF0000840202807D11348006B10218843216940
:100D000008431049086301214904206808408842CB
:100D100007D10C48006B80218843A1690843094929
:100D200008630121890220680840884207D10548EC
:100D3000006B402188436169084302490863002031
:100D400069E70000001002400070004088130000B6
:100D500070B504460D46002C01D1012070BD5848E5
:100D60000068C007C00FA8420ED25548006840086E
:100D7000400028435249086008460068C007C00F79
:100D8000A84201D00120E9E702212068084002289A
:100D900014D1042120680840042807D1494840683C
:100DA0000721090288434018464948604548406881
:100DB000F0218843A1680843424948602078C00771
:100DC000C00F002847D06068012808D13D4800685E
:100DD000012149040840002821D10120BEE76068B4
:100DE000022808D137480068012149060840002838
:100DF00015D10120B2E76068032808D13148406B63
:100E0000012109040840002809D10120A6E72D4846
:100E1000006802210840002801D101209EE72948EE
:100E20004068800880006168084326494860FFF7F1
:100E300009FE064607E0FFF705FE801B22498842AF
:100E400001D903208AE71F4840680C2108406168E7
:100E500089008842EFD11A480068C007C00FA84235
:100E60000ED917480068400840002843144908601C
:100E700008460068C007C00FA84201D001206DE7F6
:100E8000042120680840042808D10E484068072142
:100E900009028843E16808430A49486000F032F8D3
:100EA00008494968F02211400909084A515CC840C4
:100EB000074908600020FFF725FE00204EE70000EC
:100EC000002002400010024088130000A4410008E6
:100ED000280000200148006870470000280000201A
:100EE00000B5FFF7F7FF05494968072212021140D4
:100EF000090A034A515CC84000BD000000100240CE
:100F0000B4410008F0B589B035A001460EC9C068EB
:100F100005AC0EC4089036A001460EC9C06801ACED
:100F20000EC4049000250024002700260020009015
:100F3000334845680C202840002849D0042804D0B4
:100F4000082805D00C2842D13EE02E48009042E00F
:100F50000F2080042840800C05A90E5C2848C06A38
:100F60000007000F01A90C5C0320C00328400121E9
:100F7000090488420AD12246002322481946FFF775
:100F8000CFF8314601F0B9FC07461BE00320C0034F
:100F900028400321C90388420AD1224600231A4867
:100FA0001946FFF7BDF8314601F0A7FC074609E0F6
:100FB0002246002313481946FFF7B2F8314601F0E4
:100FC0009CFC0746009706E00F48009003E000BF36
:100FD0000C48009000BF00BF009809B0F0BD0000B1
:100FE00002030405060708090A0B0C0D0E0F10106A
:100FF0000102030405060708090A0B0C0D0E0F1069
:101000000010024000127A00006CDC02FEB50446BB
:10101000002C01D10120FEBD2078C007C00F0028A0
:1010200072D0FC4840680C21084004280CD0F948D4
:1010300040680840082813D1F64840684903084032
:101040000121090488420BD1F248006801214904BA
:10105000084000286BD06068002868D10120DAE7DA
:1010600000BF6068012807D1EA480068012109042F
:101070000843E849086031E0606800280ED1E5487F
:101080000068012109048843E249086008460068B5
:10109000012189048843DF4908601FE06068052852
:1010A0000ED1DC480068012189040843D949086051
:1010B00008460068012109040843D64908600DE08C
:1010C000D4480068012109048843D24908600846D1
:1010D0000068012189048843CE49086000BF606828
:1010E000002812D0FFF7AEFC054606E0FFF7AAFC89
:1010F000401B642801D903208DE7C6480068012100
:10110000490408400028F1D011E0FFF79BFC054698
:1011100006E0FFF797FC401B642801D903207AE71B
:10112000BC4800680121490408400028F1D102218F
:1011300020680840022862D1B64840680C21084067
:1011400000280CD0B3484068084008281CD1B1489A
:101150004068490308400121C903884214D1AD48C1
:10116000006802210840002804D0E068012801D06E
:10117000012050E7A7480068F82188432169C90089
:101180000843A44908603AE0E068002820D0A1485C
:101190000068012108439F490860FFF753FC05469A
:1011A00006E0FFF74FFC401B022801D9032032E77D
:1011B00098480068022108400028F2D0954800684D
:1011C000F82188432169C90008439249086016E064
:1011D00090480068400840008E490860FFF732FCE4
:1011E000054606E0FFF72EFC401B022801D903202C
:1011F00011E788480068022108400028F2D1082140
:1012000020680840082831D1E069002817D08148BB
:10121000406A012108437F494862FFF713FC0546F5
:1012200006E0FFF70FFC401B022801D90320F2E67D
:101230007848406A022108400028F2D016E075483C
:10124000406A4008400073494862FFF7FBFB0546CF
:1012500006E0FFF7F7FB401B022801D90320DAE67E
:101260006C48406A022108400028F2D1042120681D
:101270000840042872D1002001906648C0698906A0
:10128000084000280ED100BF6248C0690843614988
:10129000C8610846C06909040840009000BF00BF4B
:1012A000012001905C480068FF21013108400028BE
:1012B00016D159480068084357490860FFF7C2FB38
:1012C000054606E0FFF7BEFB401B642801D903205A
:1012D000A1E651480068FF21013108400028F1D003
:1012E00000BFA068012806D14A48006A01210843CE
:1012F000484908622AE0A06800280BD14548006AE6
:101300004108490043480162006A04218843414979
:1013100008621BE0A06805280CD13E48006A042141
:1013200008433C4908620846006A012108433949DC
:1013300008620BE03748006A4008400035490862FF
:101340000846006A042188433249086200BFA06849
:10135000002813D0FFF776FB054608E02BE0FFF7E7
:1013600071FB401B2D49884201D9032053E62948CF
:10137000006A022108400028F1D011E0FFF762FB6B
:10138000054607E0FFF75EFB411B2448814201D977
:10139000032040E61F48006A022108400028F1D1DE
:1013A0000198012806D11B48C0690121090788431B
:1013B0001849C86100BF10212068084010285FD17B
:1013C000606901282CD11348406B0421084311495E
:1013D00048630846406B012108430E494863FFF704
:1013E00031FB054606E0FFF72DFB401B022801D923
:1013F000032010E60748406B022108400028F2D085
:101400000448406BF8218843A169C9000843014999
:10141000486335E00010024000700040881300006F
:101420006069401D00280FD18648406B0421884325
:10143000844948630846406BF8218843A169C90084
:101440000843804948631BE07E48406B0421084301
:101450007C4948630846406B400840004863FFF7FA
:10146000F1FA054606E0FFF7EDFA401B022801D924
:101470000320D0E57348406B022108400028F2D1D8
:10148000202120680840202852D16E4840680C2155
:1014900008400C280AD06B4840680840082811D141
:1014A000684840684903084088420BD16548406B52
:1014B00001210904084000283AD0206A012837D0C9
:1014C0000120A8E5206A002819D05E48406B012160
:1014D000090408435B494863FFF7B4FA054606E090
:1014E000FFF7B0FA401B022801D9032093E55548C5
:1014F000406B0121090408400028F1D018E0514850
:10150000406B0121090488434E494863FFF79AFA6A
:10151000054606E0FFF796FA401B022801D9032092
:1015200079E54848406B0121090408400028F1D1C1
:10153000606A00284FD0434840680C2108400828C2
:1015400064D0606A022847D13E480068012109063C
:1015500088433C490860FFF775FA054606E0FFF747
:1015600071FA401B022801D9032054E53548006870
:101570000121490608400028F1D100BF3148C06A66
:1015800000090001216B08432E49C862A16AE06A84
:1015900008432C4949687B22D203914308432949D7
:1015A000486000BF08460068012109060843254934
:1015B0000860FFF747FA054606E0FFF743FA401BCD
:1015C000022801D9032026E51E48006801214906AA
:1015D00008400028F1D033E01A48006801210906CC
:1015E000884318490860FFF72DFA054606E0FFF723
:1015F00029FA401B022801D903200CE51148006894
:101600000121490608400028F1D119E0606A01284B
:1016100000D100E50B484668C76A0320C00330408C
:10162000A16A88420AD13907090F206B814205D18E
:101630000F2080043040E16A884201D00120EAE4B2
:101640000020E8E40010024070B50446002C01D1EF
:10165000012070BD606A002808D1FF210531606853
:10166000884200D105E00021E16102E00021216112
:1016700061610021A1625D20005D002804D15C2031
:101680000155204600F066F802215D2001552068D2
:101690000068402188432168086007210902E0684A
:1016A000884201D9002501E001252D030F210902FF
:1016B000E068884206D007210902E068884201D02C
:1016C0000021A162FF2105316068084021229202B9
:1016D000A168114008430222216911400843217D7D
:1016E000C907C90F08431202A169114008433822F3
:1016F000E169114008438022216A114008439201A8
:10170000A16A1140084321680860A069000C042107
:1017100008401022616A114008430822616B1140A1
:1017200008430F221202E168114008430121090316
:1017300029400843216848602068C0690121C90226
:1017400088432168C8610020206601215D20015581
:1017500000207EE710B586B00446142101A8FEF7EC
:1017600039FD1849206888422AD100BF164880698F
:10177000891408431449886108468069891408401F
:10178000009000BF00BF00BF0F48406989010843B7
:101790000D494861084640690121890408400090CC
:1017A00000BF00BF3820019002200290002003906B
:1017B000032004900020059001A90448FFF740F899
:1017C00006B010BD00300140001002400004004887
:1017D000FFB583B0044616461D4600200290FF2147
:1017E0000531606888420ED1A06800280BD1042121
:1017F0005D20015533460095049A1146204600F0BD
:10180000B2F907B0F0BD00BF5C20005D012801D136
:101810000220F6E701215C20015500BFFFF712F915
:1018200007465D20005D012802D002200290AAE058
:101830000498002801D0002E02D101200290A2E0DD
:1018400004215D2001550020206604982064442076
:101850000653462006530020A063A087E087E0647B
:10186000206507210902E068884207D9206840689E
:101870000121090388432168486006E02068406828
:10188000012109030843216848600121C903A068B8
:1018900088420CD120680068402188432168086094
:1018A0002068006801218903884321680860206856
:1018B000006840210840402804D0206800680843A0
:1018C0002168086007210902E068884226D820E0E4
:1018D00020688068C007C00F00280DD02068007BFA
:1018E000216C0870206C401C20644620005B401E68
:1018F00081B2462001530CE0FFF7A4F8C01BA842B8
:1019000002D3681C002801D1002D02D103200290CF
:1019100039E04620005B0028DAD125E020E020688D
:101920008068C007C00F00280DD02068C068216CF7
:101930000880206C801C20644620005B401E81B221
:10194000462001530CE0FFF77DF8C01BA84202D3EC
:10195000681C002801D1002D02D10320029012E062
:101960004620005B0028DAD13A462946204600F09E
:10197000EFFB002801D020202066206E002801D037
:101980000120029000BF01215D20015500BF002110
:101990005C20015500BF029833E7FFB583B00446D1
:1019A00016461D460020029000BF5C20005D012805
:1019B00002D1022007B0F0BD01215C20015500BF1B
:1019C000FFF740F8074601965D20005D012802D030
:1019D00002200290BDE00498002801D0002E02D120
:1019E00001200290B5E003215D2001550020206612
:1019F0000498A063A687E687002020640021442085
:101A000001534620015300202065E0640121C903F1
:101A1000A06888420CD12068006840218843216872
:101A20000860206800680121890308432168086074
:101A30002068006840210840402804D020680068E1
:101A400008432168086007210902E068884232D90A
:101A50006068002802D00198012809D1A06B008895
:101A60002168C860A06B801CA063E08F401EE087E7
:101A70001DE0206880680221084002280AD1A06B7E
:101A800000882168C860A06B801CA063E08F401EA6
:101A9000E0870CE0FEF7D6FFC01BA84202D3681C0B
:101AA000002801D1002D02D10320029051E0E08FE7
:101AB0000028DED131E06068002802D001980128BA
:101AC00009D1A06B007821680873A06B401CA0634B
:101AD000E08F401EE0871DE02068806802210840FA
:101AE00002280AD1A06B007821680873A06B401C03
:101AF000A063E08F401EE0870CE0FEF7A3FFC01B51
:101B0000A84202D3681C002801D1002D02D1032075
:101B100002901EE0E08F0028DED13A46294620469A
:101B200000F05DFB002801D020202066A06800287E
:101B300009D100BF00902068C068009020688068CC
:101B4000009000BF00BF206E002801D0012002904D
:101B500000BF01215D20015500BF00215C2001551F
:101B600000BF029826E7FFB585B004461D460E9ECD
:101B7000012001900020009000BF5C20005D012842
:101B800002D1022009B0F0BD01215C20015500BF47
:101B9000FEF758FF07465D20005D029060680390E5
:101BA0000495029801280DD0FF2105310398884241
:101BB00005D1A068002802D10298042802D0022092
:101BC0000090FBE00698002804D00798002801D078
:101BD000002D02D101200090F0E05D20005D04287E
:101BE00002D005215D200155002020660798206461
:101BF00046200553442005530698A063E587A58732
:101C00000020E064206507210902E068884207D9C6
:101C1000206840680121090388432168486006E084
:101C20002068406801210903084321684860206852
:101C3000006840210840402804D02068006808431C
:101C40002168086007210902E068884254D9606869
:101C5000002802D00498012809D1A06B00882168CF
:101C6000C860A06B801CA063E08F401EE0873BE053
:101C70002068806802210840022811D1E08F0028E6
:101C80000ED0019801280BD1A06B00882168C86094
:101C9000A06B801CA063E08F401EE08700200190B5
:101CA00020688068C007C00F002812D04620005B63
:101CB00000280ED02068C068216C0880206C801C31
:101CC00020644620005B401E81B246200153012063
:101CD0000190FEF7B7FEC01BB04205D3701C002870
:101CE00002D00320009069E0E08F0028C0D1462098
:101CF000005B0028BCD155E06068002802D0049841
:101D0000012809D1A06B007821680873A06B401CE2
:101D1000A063E08F401EE0873DE0206880680221DC
:101D20000840022811D1E08F00280ED00198012828
:101D30000BD1A06B007821680873A06B401CA063D6
:101D4000E08F401EE0870020019020688068C00777
:101D5000C00F002812D04620005B00280ED020685B
:101D6000007B216C0870206C401C20644620005BC6
:101D7000401E81B24620015301200190FEF762FE11
:101D8000C01BB04202D3701C002801D1002E02D12A
:101D90000320009012E0E08F0028BED14620005BB7
:101DA0000028BAD13A463146204600F018FA0028F9
:101DB00003D0012000902020206600BF01215D207B
:101DC000015500BF00215C20015500BF0098D9E6F5
:101DD00070B504462546681E0949884201D901208C
:101DE0000CE0681E074948610321081F00F09EFDB2
:101DF00000200449886107200861002070BD0000B0
:101E0000FFFFFF0000E000E010B50446002C01D108
:101E1000012010BDA069002800D000E000BFA06F25
:101E2000002805D1002174200155204600F02CF82F
:101E30002420A067206800684008400021680860EE
:101E4000204600F0D7FB012800D1E2E7606A0028B5
:101E500002D0204600F01CFB206840680921C9021E
:101E6000884321684860206880682A218843216867
:101E700088602068006801210843216808602046C6
:101E800000F07EFBC5E7000010B586B004461421C3
:101E900001A8FEF79FF91A49206888422ED100BF99
:101EA000184880690121890308431649886108465A
:101EB0008069012189030840009000BF00BF00BF76
:101EC00010484069C90008430E4948610846406906
:101ED000012149040840009000BF00BF03204002D8
:101EE0000190022002900020039003200490012022
:101EF000059001A90920C006FEF7A2FC06B010BD9E
:101F00000038014000100240FFB583B004460D4682
:101F10001746A06F202876D1002D01D0002F02D1C6
:101F2000012007B0F0BD01210903A068884208D153
:101F30002069002805D1E807C00F002801D0012042
:101F4000EFE700BF7420005D012801D10220E8E71F
:101F500001217420015500BF002180200151212062
:101F6000A067FEF76FFD01905020075352200753E2
:101F700001210903A068884205D12069002802D107
:101F80000026029502E02E460020029000BF0021AC
:101F90007420015500BF21E00698009000228021A6
:101FA0002046019B00F01EFC002801D00320B8E76A
:101FB000002E09D102980088C005C00D216808854F
:101FC0000298801C029003E0307821680885761C16
:101FD0005220005B401E81B2522001535220005B10
:101FE0000028D9D106980090002240212046019B6C
:101FF00000F0F8FB002802D0032092E703E0202045
:10200000A06700208DE702208BE700BFFEE70000FD
:1020100000B587B0142102A8FEF7DCF800BF18480D
:10202000406901218904084315494861084640690F
:10203000012189040840019000BF00BF00BF104883
:102040004069491008430E4948610846406901212A
:1020500049040840019000BF00BF0022491109480F
:10206000FEF7EAFC0120000302900120039000200B
:102070000490059002A90348FEF7E2FB07B000BDFB
:10208000001002400004004810B5084808490860E4
:102090000020486007490648C1608160FEF7D8FC0F
:1020A000002801D0FEF7CAFB10BD00000030004040
:1020B0002C000020FF0F000010B5114811490860E6
:1020C000FF200530486000210E4881600721090289
:1020D000C160022101610121416149028161002148
:1020E000C1610162416281620721C1620021016315
:1020F0004163FFF7A9FA002801D0FEF79FFB10BD4E
:10210000003001403C00002010B50E480E49086028
:102110004B20C001486000210B488160C160016113
:102120000C21416100218161C161016200200649E9
:1021300048620846FFF768FE002801D0FEF77EFBE4
:1021400010BD000000380140A0000020704770471B
:10215000F8B504460E461546FF21053160688842F1
:102160000ED10121C903A068884203D04911A0689B
:10217000884205D1206800684021884321680860B2
:102180003346002280212046009500F0D1F8002837
:1021900005D0206E2021084320660320F8BDFF21D2
:1021A00005316068884218D10121C903A0688842BE
:1021B00003D04911A06888420FD133460022032181
:1021C00049022046009500F03FF8002805D0206E17
:1021D0002021084320660320E0E70020DEE7F8B571
:1021E00004460E461546334600220321C902204606
:1021F000009500F029F8002805D0206E2021084322
:1022000020660320F8BD3346002280212046009539
:1022100000F08EF8002805D0206E202108432066AB
:102220000320EFE7334600220321490220460095B0
:1022300000F00AF8002805D0206E2021084320660F
:102240000320DFE70020DDE7FEB504460D46164615
:102250001F46FEF7F7FB0899401A381A0190FEF75F
:10226000F1FB00903148006823214843000D01999B
:102270004843029052E003204002854203D1002EE1
:1022800001D12068007B781C002847D0FEF7DAFBDC
:102290000099411A0198814202D20198002836D152
:1022A00020684068E021884321684860FF210531AB
:1022B000606888420ED10121C903A068884203D01A
:1022C0004911A068884205D12068006840218843F0
:1022D0002168086001214903A06A88420DD100BF2E
:1022E0002068006888432168086020680068012130
:1022F000490308432168086000BF01215D200155A2
:1023000000BF00215C20015500BF0320FEBD0298E4
:10231000002800D101900298401E02902068806839
:102320002840B042A7D10020F0E70000280000209C
:10233000FFB583B004460D461E46FEF783FB0C999D
:10234000401A371AFEF77EFB01902F4800684001C3
:10235000000D7843029049E0701C002846D0FEF73B
:1023600071FB0199401AB84201D2002F37D1206881
:102370004068E021884321684860FF21053160689A
:1023800088420ED10121C903A068884203D04911B7
:10239000A068884205D120680068402188432168F0
:1023A000086001214903A06A88420DD100BF20685E
:1023B000006888432168086020680068012149039B
:1023C00008432168086000BF01215D20015500BF5E
:1023D00000215C20015500BF032007B0F0BD02982A
:1023E000002800D100270298401E029020688068D3
:1023F0002840A84201D1012100E000210598814236
:10240000AAD10020E9E7000028000020704710B59D
:10241000FEF75CFB10BD00B599B034210CA8FDF7A8
:10242000D9FE0020089009900A900B901C2101A869
:10243000FDF7D0FE0A200C9001200F901020109084
:1024400001201390002015900CA8FEF7DFFD002856
:1024500001D0FEF7F3F907200890002009900A90B8
:102460000B90002108A8FEF773FC002801D0FEF7AE
:10247000E5F92120019000200390059001A8FEF7C6
:1024800095FB002801D0FEF7D9F919B000BD7047BF
:10249000818CC907C90F002908D001684968012249
:1024A00052049143826A1143026851600222416AD8
:1024B0001140022907D101684968D2039143C26AD9
:1024C0001143026851600422416A1140042907D176
:1024D0000168496812049143026B1143026851601C
:1024E0000822416A1140082907D10168496812038E
:1024F0009143426B1143026851601022416A1140BE
:10250000102907D10168896812029143826B114337
:10251000026891602022416A1140202907D1016898
:10252000896812029143C26B114302689160402294
:10253000416A1140402915D10168496892039143CD
:10254000026C11430268516001221205016C914234
:1025500008D101684968032252059143426C114336
:10256000026851608022416A1140802907D10168C8
:10257000496812039143826C1143026851607047AD
:1025800038B50446002180200151FEF75BFA05466C
:10259000206800680821084008280BD114482B4601
:1025A000002289040090204600F01CF9002801D088
:1025B000032038BD206800680421084004280BD19E
:1025C0000B482B46002209050090204600F00AF92E
:1025D000002801D00320ECE72020A067E06700205E
:1025E000206600BF00217420015500BF0020E0E7F5
:1025F000FFFFFF01FEB50446002000902169A0689E
:10260000084361690843E169084302902068006853
:102610006C490840029908432168086020684068B6
:10262000032109038843E168084321684860A069E1
:102630000290206A029908430290206880680B216A
:1026400009028843029908432168886000BF5E49F7
:102650002068884217D15D48006B8007800F0028F2
:1026600006D0012808D0022808D0032808D101E0AC
:10267000002507E0022505E0042503E0082501E028
:10268000102500BF2BE05249206888421AD14F48DC
:10269000006B032109040840002808D00121090427
:1026A000401A08D0401A08D0401A08D101E000258D
:1026B00007E0022505E0042503E0082501E01025D8
:1026C00000BF0CE043492068884201D1002506E0A4
:1026D00041492068884201D1002500E0102500BF53
:1026E0000121C903E069884239D1002D06D0022DAD
:1026F00008D0042D08D0082D0DD109E0FEF7F0FB1D
:1027000006460CE0354E0AE0FEF7FCFB064606E006
:102710000126F60303E000260120009000BF00BF61
:10272000002E49D0720063685B08D0186168FDF71D
:10273000E1FC87B2102F0FD3294887420CD82848D4
:102740000F38384001903807400F01990843019035
:1027500001982168C8602FE0012000902CE0002D36
:1027600006D0022D08D0042D08D0082D0DD109E087
:10277000FEF7B6FB06460CE0184E0AE0FEF7C2FB79
:10278000064606E00126F60303E00026012000903D
:1027900000BF00BF002E0FD061684A089019FDF7F6
:1027A000A9FC87B2102F05D30D48874202D82068B4
:1027B000C76001E00120009000206066A0660098DC
:1027C000FEBD0000F369FFEF003801400010024039
:1027D0000044004000480040004C004000127A00D5
:1027E000FFFF0000FFB581B004460D4617460A9E64
:1027F0004CE0701C002849D0FEF724F90499401AD7
:10280000B04201D8002E17D120680068FF21A13105
:10281000884321680860206880684008400021687B
:1028200088602020A067E06700BF00217420015568
:1028300000BF032005B0F0BD2068006804210840F7
:10284000002823D02068C06949020840C00A002837
:102850001CD008462168086220680068FF21A13169
:10286000884321680860206880684008400021682B
:1028700088602020A067E06720218020015100BFF0
:1028800000217420015500BF0320D3E72068C069F0
:102890002840A84201D1012000E00020B842A8D081
:1028A0000020C7E70FB410B504A9074B02AA03988C
:1028B00000F042F9044602A9002000F0DBFC2046AB
:1028C00010BC08BC04B01847753200082021020C67
:1028D00001D010211046020A01D010460839020921
:1028E00001D01046091F820801D01046891E4208F7
:1028F00001D0881E7047081A7047F8B582B28BB2B3
:10290000040C0D0C10465843002126465E43370C3C
:1029100036048019794116466E43370C3604801907
:10292000794126466E438919F8BD000010B500288C
:1029300019DB1A4A03231B02D21883089B00D258C2
:102940008307DC0EFF23A3409A438B071B0E8407EB
:10295000E40EA3401A43114B032424021B198408DC
:10296000A4001A5118E00E4A03071B0F083B9B08EE
:102970009B00D2588307DC0EFF23A3409A438B07AA
:102980001B0E8407E40EA3401A43054B0407240FD3
:10299000083CA408A4001A5110BD000000E100E0AA
:1029A0001CED00E002E008C8121F08C1002AFAD19D
:1029B00070477047002001E001C1121F002AFBD1BF
:1029C00070470000F0B51FB486B00998089A030D4F
:1029D0000021024314D05148514A1818504305149D
:1029E0001198012810981AD0281A401C00264D4F23
:1029F0004D49009601910490002812DA444211E0FA
:102A00001198012449A3012801D11098C1430698C7
:102A1000119A84600360C26041600BB0F0BD404217
:102A2000E4E70446210500203F4A001C5141039180
:102A3000029012E0E00707D032463B460199009829
:102A4000FDF788FC0191009032463B46104619463E
:102A5000FDF780FC06460F466410002CEAD104986E
:102A6000039B0028029A0999089806DAFDF772FC80
:102A7000019B009AFDF76EFC05E0FDF7D3FC019B7E
:102A8000009AFDF7CFFC04460E460022284BFDF7C6
:102A9000AFFE03D80020C043014607E00022254BCB
:102AA00020463146FDF7A2FBFDF782FE102409E027
:102AB000002C0ADB0A220023FDF732FB079B303291
:102AC0001A55641E02460A43F2D11122641C079B68
:102AD000121B1C19119B012B03D0012308430ED19B
:102AE0000AE0084304D0112010900020119077E7ED
:102AF0001098151A6D1E0BE01098824202DD00231B
:102B00006D1C03E0824201DA00236D1E002BEED023
:102B1000069811998260C16030C07EE701FCFFFF1A
:102B2000104D0000000014400000F03F3000000095
:102B30000000F0430000E03FFFB597B006460025D7
:102B40001BE2252876D100242746F749049400E0AB
:102B50000443761C32780120203A90400842F7D195
:102B600030782A280ED002223078014630390929DF
:102B700016D804990A235943303940181443761C57
:102B80000490F1E7189802C804911890002904DA1B
:102B90000120400304434842049002200443761C71
:102BA00030782E2814D1042004437078761C2A280B
:102BB00009D11898761C80C8189009E00A214F4363
:102BC000303FC719761C3078014630390929F5D9CC
:102BD00030786C2810D006DC4C281AD068280ED02B
:102BE0006A2817D104E0742813D07A2812D110E093
:102BF0000120400504430CE00121090501E0032107
:102C000009050C437178814203D101200005241885
:102C1000761C761C307866280BD013DC58287DD0C3
:102C200009DC00287BD04528F6D04628F4D0472878
:102C30001AD1A9E118E0632835D0642870D065283E
:102C400012D1A1E170286CD008DC6728F1D0692886
:102C50007DD06E280DD06F2806D1BCE073282ED011
:102C6000752873D0782859D01A9A199990476D1CF5
:102C700082E16002400F022809D003280DD0042809
:102C8000189801680DD00D60001D189074E1189817
:102C9000EA1701680D604A60F6E7189801680D8030
:102CA000F2E70D70F0E718986A4601781172001D7E
:102CB00018900020507202A80090012005E018989A
:102CC00002C8189000200091C04361070ED5002172
:102CD00001E00199491C0191B94213DA8142F8DB04
:102CE000019A0099895C0029F3D10BE0002101E0F1
:102CF0000199491C01918142FADB019A0099895C92
:102D00000029F5D1019904981A9B471A21463846A3
:102D1000199A00F099FA4019019903E051E030E165
:102D200015E050E0451807E0009800990078491C2C
:102D300000911A9A199990470198401E0190401CE1
:102D4000F2D1214638461A9B199A12E137E00A203F
:102D50000021009001916002410F022907D0189ACA
:102D600001CA1892C2179446032908D00AE018989D
:102D7000C01DC108C90005C91891944607E000B2FA
:102D8000C2179446042902D140B2C1178C460022D2
:102D90006146944506DA0A460021404291418C463C
:102DA0002D2102E0210504D52B216A461173012152
:102DB00003E0E10701D02021F7E7029156E00A2065
:102DC0000AE0102008E010200090002104200443B5
:102DD0000191082703E00820002101910090600282
:102DE000410F022907D0189A01CA1892002294466E
:102DF000032908D008E01898C01DC108C90005C9FA
:102E00001891944603E080B2042900D1C0B2002199
:102E1000029121072AD531780D91702906D0009AA8
:102E20001021019B4A401A4305D00EE040216A461A
:102E30001173012108E06146014306D030216A4642
:102E400011730D99517302210291009A0821019B7F
:102E50004A401A430AD16146014301D1610705D5B1
:102E600030216A46117301217F1E02913178582961
:102E700004D02EA10E910DA90D910DE030A1F9E71E
:102E80006146019B009AFDF74BF90E9B8C469B5CBB
:102E90000D9A521E0D92137061460143F0D10D98A8
:102EA00005A9081A20300190600703D5012000040D
:102EB000844300E001270198874201DD381A00E0D1
:102EC0000020019900904118029809180498401AAE
:102ED0000490E00306D421461A9B199A049800F046
:102EE000B3F94519002706E003A81A9AC05D19999D
:102EF00090476D1C7F1C02988742F5DBE0030CD5E0
:102F000021461A9B199A049800F09EF9451904E08D
:102F10001A9A3020199990476D1C0099481E00900C
:102F20000029F5DC1FE000000928010030313233B0
:102F300034353637383961626364656600000000F5
:102F400030313233343536373839414243444546DF
:102F5000000000000D980D990078491C0D911A9AF7
:102F6000199990476D1C0199481E01900029F1DCC8
:102F70004DE100F059F94519761C3078002800D051
:102F8000DFE528461BB0F0BD600700D4062718987F
:102F9000C01DC108C90048680A680831C30FDB07B3
:102FA0001891190001D09CA108E0210501D59BA131
:102FB00004E0E10701D09AA100E09AA1430010913A
:102FC00030785B0865280CD006DC452809D04628F7
:102FD0001DD0472841D141E0662818D067283CD150
:102FE0003CE00021112F01DB112000E0781C019151
:102FF000009008A911A8FFF7E5FC1399059100219D
:10300000119A15927F1C12980197009150E00120AF
:10301000C00703900120019008A9009711A8FFF7AD
:10302000D1FC139A149905920022119B00921298D8
:103030001593059A0192002901D0104602E0791CEF
:1030400040180190381A01D5019804E04042401E12
:103050000090781C0190C01B029043E0012F00DA21
:1030600001270021112F01DD112000E038460191D8
:10307000009008A911A8FFF7A5FC13990591119AD2
:103080000021129815920091019721070CD40599FF
:10309000B94201DB019900E00191012904DD159A93
:1030A000491E515C302906D0B84201DA011D05DA0B
:1030B0000121029115E00199491EEDE7002805DC88
:1030C0000099411800910199091A03E0019A411CE5
:1030D000914200DD01910099401A401C02900120AC
:1030E000C0070390200706D402990198814202DBB1
:1030F0000020C043029000206946C87707AF012135
:1031000003980337C907884224D0022011902B204E
:103110001290039800280CDA404203902D20129060
:1031200007E00A210398FCF7E5FF30317F1E03908A
:1031300039701199481E11900029F2DC039800287B
:10314000EFD1791E12980870307820210840453060
:10315000BF1E387006A8C01BC01D039010980078D1
:10316000002800D00120019941180298C0170918C1
:10317000039809180498401A401E0490E00306D4EE
:1031800021461A9B199A049800F05EF84519109888
:103190000078002803D01A9A199990476D1CE00313
:1031A00024D521461A9B199A049800F04DF8451928
:1031B0001CE00098002807DB00990598884203DD91
:1031C0001598405C199901E0199930201A9A904796
:1031D00000986D1C401C00900298401E0290002830
:1031E00004D11A9A2E20199990476D1C0199481EF6
:1031F00001900029DDDC05E038781A9A7F1C1999C6
:1032000090476D1C0399481E03900029F4DC214669
:103210001A9B199A0498ACE62D0000002B000000C0
:103220002000000000000000F8B5044600251E46FE
:103230001746880404D405E039462020B0476D1CA9
:10324000641EF9D52846F8BDFFB50446002581B0B7
:103250001E46C80301D5302700E02027880404D586
:1032600005E038460399B0476D1C641EF9D5284621
:1032700005B0F0BD0A68531C0B6010707047000069
:10328000F1B58EB000F048F98E480068FDF742F9BC
:103290000646002201239B07FDF7C4F804460022DE
:1032A000894BFDF748F80D910C9088490020085E85
:1032B000FDF730F906460F460C9A10460D9B19464D
:1032C000FDF748F832463B4607910690FDF742F875
:1032D000044600227E4BFDF7A5F80B910A907D492C
:1032E0000020085EFDF716F9079106900D9B0C9AD9
:1032F000FDF730F80646002201239B07FDF72AF868
:1033000004460B9B0A9AFCF771FF0B910A907249D5
:103310000020085EFDF7FEF8064600226F4BFDF721
:1033200019F804460D4600226D4B0B990A98FDF7DB
:1033300079F822462B4607910690FCF757FF0B9130
:103340000A9068490020085EFDF7E4F804460D9BEA
:103350000C9AFCF7FFFF0591049063490020085E7A
:10336000FDF7D8F804460D9B0C9AFCF7F3FF0646D0
:103370000D9B0C9AFCF7EEFF00225C4B0191009034
:10338000FDF750F803910290059B049AFCF72EFF7D
:103390000022564B07910690FDF744F80D910C90D2
:1033A00053480088FDF7CAF806460F460022484BEE
:1033B0000D990C98FDF736F8044600224D4BFCF7AA
:1033C00015FF32463B4607910690FCF7C3FF0D916F
:1033D0000C90002213460D990C98FDF7F5F802D1D8
:1033E00000200FB0F0BD0E98FDF794F804460022BF
:1033F000414BFCF7A6FF0991089000223F4B0B9927
:103400000A98FDF70FF80646099B089AFCF799FF02
:10341000044600223A4BFCF79DFF079106900D9B56
:103420000C9AFCF7FFFF0991089036490020085ECE
:10343000FDF770F80446099B089AFCF78BFF07918B
:103440000690099B089AFCF785FF064600222E4B42
:10345000FCF7E8FF0D910C902C490020085EFDF769
:1034600059F80646099B089AFCF774FF04460022A7
:10347000174BFCF7D7FF0B910A9025490020085EF7
:10348000FDF748F8059104900B9B0A9A0D990C984A
:10349000FCF7ACFE0446059B049AFCF7A7FE064623
:1034A00000221C4BFCF7BEFF07910690099B089A6F
:1034B000FCF79CFE0991089009990898FDF798F887
:1034C0008FE70000000000200040EF4014000020C3
:1034D0000000E04012000020100000200000F0403A
:1034E000000010400C0000200E00002000002041D1
:1034F000060000200000F03F000030410000B04016
:10350000006AB8401A0000200000E04118000020C6
:10351000160000200000304010B59AB000240020B2
:1035200019908821189189211791002201210903FE
:10353000FE48FDF781FA1423012217A9FC48FEF783
:103540002CFA1423012219A90131F948FEF740F998
:1035500001221103F548FDF76FFA0022012109034A
:10356000F248FDF769FA1423012218A9F048FEF782
:1035700014FA1423012219A9ED48FEF729F90122B2
:103580001103EA48FDF758FA18A84079010218A873
:10359000007901430C46204600F0DCFCE549088038
:1035A0008A2116918B211591002201210903DF4800
:1035B000FDF742FA1423012215A9DD48FEF7EDF9C3
:1035C0001423012219A90131D948FEF701F901227A
:1035D0001103D648FDF730FA002201210903D34830
:1035E000FDF72AFA1423012216A9D148FEF7D5F9CE
:1035F0001423012219A9CE48FEF7EAF8012211038B
:10360000CA48FDF719FA18A84079010218A80079EC
:1036100001430C4618A949790A0218A909790A43F5
:10362000104600F097FC00B2C34908808C2014902B
:103630008D201390002201210903BC48FDF7FCF9FD
:103640001423012213A9BA48FEF7A7F91423012273
:1036500019A90131B648FEF7BBF801221103B3489E
:10366000FDF7EAF9002201210903B048FDF7E4F96A
:103670001423012214A9AE48FEF78FF91423012266
:1036800019A9AB48FEF7A4F801221103A748FDF7DA
:10369000D3F918A94879000209790843044618A902
:1036A00049790A0218A909790A43104600F052FC28
:1036B00000B2A24908808E2012908F201190002223
:1036C000012109039948FDF7B7F91423012211A933
:1036D0009748FEF762F91423012219A90131944891
:1036E000FEF776F8012211039048FDF7A5F90022B4
:1036F000012109038D48FDF79FF91423012212A926
:103700008B48FEF74AF91423012219A98848FEF7CD
:103710005FF8012211038548FDF78EF918A9487951
:10372000000209790843044618A949790A0218A930
:1037300009790A43104600F00DFC81490880902069
:10374000109091200F900022012109037748FDF786
:1037500073F9142301220FA97548FEF71EF91423EB
:10376000012219A901317248FEF732F80122110332
:103770006E48FDF761F90022012109036B48FDF74E
:103780005BF91423012210A96948FEF706F91423F6
:10379000012219A96648FEF71BF8012211036348AC
:1037A000FDF74AF918A94879000209790843044647
:1037B00018A949790A0218A909790A43104600F0A4
:1037C000C9FB00B25F49088092200E9093200D90B3
:1037D0000022012109035548FDF72EF91423012287
:1037E0000DA95348FEF7D9F81423012219A9013174
:1037F0004F48FDF7EDFF012211034C48FDF71CF97E
:103800000022012109034948FDF716F9142301227A
:103810000EA94748FEF7C1F81423012219A944480C
:10382000FDF7D6FF012211034048FDF705F918A95D
:103830004879000209790843044618A949790A021F
:1038400018A909790A43104600F084FB00B23E49EA
:10385000088094200C9095200B90002201210903F0
:103860003248FDF7E9F8142301220BA93048FEF78E
:1038700094F81423012219A901312D48FDF7A8FF5E
:10388000012211032948FDF7D7F80022012109037D
:103890002648FDF7D1F8142301220CA92448FEF78D
:1038A0007CF81423012219A92148FDF791FF012278
:1038B00011031E48FDF7C0F818A9487900020979DC
:1038C0000843044618A949790A0218A909790A4344
:1038D000104600F03FFB00B21C49088096200A9079
:1038E000972009900022012109031048FDF7A4F850
:1038F0001423012209A90E48FEF74FF814230122D0
:1039000019A901310A48FDF763FF01221103074895
:10391000FDF792F80022012109030448FDF78CF815
:10392000142301220AA9024812E000000004004802
:103930003C00002004000020080000200A000020B5
:10394000060000200C0000200E00002010000020C7
:10395000FEF723F81423012219A99848FDF738FF30
:10396000012211039648FDF767F818A9487900026B
:1039700009790843044618A949790A0218A909795E
:103980000A43104600F0E6FA00B28E4908809820FB
:103990000890992007900022012109038848FDF72B
:1039A0004BF81423012207A98448FDF7F6FF1423DE
:1039B000012219A901318148FDF70AFF01221103F3
:1039C0007F48FDF739F80022012109037C48FDF703
:1039D00033F81423012208A97848FDF7DEFF1423E9
:1039E000012219A97548FDF7F3FE0122110374485D
:1039F000FDF722F818A9487900020979084304461E
:103A000018A949790A0218A909790A43104600F051
:103A1000A1FA00B26C4908809A2006909B2005907C
:103A20000022012109036648FDF706F8142301224C
:103A300005A96248FDF7B1FF1423012219A901313C
:103A40005E48FDF7C5FE012211035D48FCF7F4FF57
:103A50000022012109035A48FCF7EEFF142301223A
:103A600006A95648FDF799FF1423012219A95348C6
:103A7000FDF7AEFE012211035148FCF7DDFF18A946
:103A80004879000209790843044618A949790A02CD
:103A900018A909790A43104600F05CFA00B24B49B4
:103AA00008809C2004909D2003900022012109039E
:103AB0004348FCF7C1FF1423012203A93F48FDF747
:103AC0006CFF1423012219A901313C48FDF780FE47
:103AD000012211033A48FCF7AFFF0022012109033C
:103AE0003748FCF7A9FF1423012204A93348FDF746
:103AF00054FF1423012219A93048FDF769FE012261
:103B000011032F48FCF798FF18A94879000209799A
:103B10000843044618A949790A0218A909790A43F1
:103B2000104600F017FA00B2294908809E20029042
:103B30009F2001900022012109032148FCF77CFF0E
:103B40001423012201A91D48FDF727FF1423012298
:103B500019A901311948FDF73BFE0122110318484C
:103B6000FCF76AFF0022012109031548FCF764FFF6
:103B70001423012202A91148FDF70FFF142301228B
:103B800019A90E48FDF724FE012211030C48FCF789
:103B900053FF18A94879000209790843044618A977
:103BA0004979090218AA12791143084600F0D2F99E
:103BB00000B2084908801AB010BD00003C00002087
:103BC000000400481200002014000020160000200D
:103BD000180000201A000020F1B590B0FFF79CFCFF
:103BE00049490020085EFCF795FC09910890474878
:103BF0000088FCF7A3FC04460022454BFCF712FCAE
:103C0000059104901098FCF785FC04460022414B76
:103C1000FCF708FC0646059B049AFCF78CFB079111
:103C20000690099B089AFCF795FB0F910E903A4974
:103C30000020085EFCF76EFC09910890334800886C
:103C4000FCF77CFC04460022344BFCF7EBFB0646F9
:103C50000F461098FCF75EFC0446002241231B0629
:103C6000FCF7E0FB32463B4601910090FCF763FB1A
:103C70000591049025480088FCF760FC044600226A
:103C8000264BFCF7CFFB06460F461098FCF742FC8C
:103C90000446002241231B06FCF7C4FB32463B4688
:103CA00001910090FCF747FB03910290059B049A59
:103CB000FCF750FB07910690099B089AFCF74AFB1A
:103CC0000D910C900D9B0C9A0F990E98FCF78EFAA3
:103CD0000446FCF741FC124908600D9B0C9A0F99B1
:103CE0000E98FCF783FA0B910A9000220D4B0B996A
:103CF0000A98FCF797FB0B910A900B990A98FCF72E
:103D000077FC11B0F0BD0000080000200400002086
:103D1000000090400000D0400A0000200000C04099
:103D2000000000200000B4401CB5F72101910020E4
:103D3000009000240022012109031048FCF77CFEBA
:103D40000A23012201A90E48FDF727FE0A230322B8
:103D500069460B48FDF73CFD012211030748FCF7BB
:103D60006BFE68460078040368464078000104430F
:103D7000684680780009044320461CBD00040048C2
:103D80003C0000201CB5FA21019100200090002485
:103D90000022012109031048FCF74EFE0A230122EC
:103DA00001A90E48FDF7F9FD0A23032269460B48D5
:103DB000FDF70EFD012211030748FCF73DFE6846A2
:103DC0000078040368464078000104436846807820
:103DD0000009044320461CBD000400483C000020AC
:103DE00094B0FCF77FFEFEF716FBFEF711F9FEF725
:103DF0004BF9FEF761F9FEF787F9012211034548F7
:103E0000FCF71AFE00211391D0211291002201210A
:103E100009034048FCF710FE0A23012212A93E487C
:103E2000FDF7BBFD0A23012213A93B48FDF7D0FC97
:103E3000012211033748FCF7FFFD052000F06CF963
:103E4000052000F0DDF8052000F020F9032000F047
:103E500093F80024002700200D900E900F900A90F8
:103E60000B900C9014222DA105A8FCF79AF930A212
:103E700007CA02AB07C300200190FCF7E3FD0190E5
:103E800047E0FCF7DFFD0199401A7D21C900884217
:103E90003CD9FFF777FF04462046FFF79DFE1190BF
:103EA0001198FCF77DFB05462A460B4623A10DA879
:103EB000FEF7F8FC3223122205A92248FEF724F867
:103EC00032230A220DA91F48FEF71EF8FFF72CFF28
:103ED00007463846FFF7D4F910901098FCF760FBBE
:103EE00005462A460B4618A10AA8FEF7DBFC32233A
:103EF0000C2202A91348FEF707F832230A220AA966
:103F00001048FEF701F8FCF79DFD01901048FCF702
:103F1000D5FDB6E7000400483C00002054656D70F4
:103F200065726174757261205B435D3A2000000028
:103F3000546C616B205B50615D3A200025322E325B
:103F4000660D0A00A000002025362E32660D0A00FC
:103F50002C0000200146002200230120C00308405D
:103F6000C213002A06D0C84381B2481C81B24B421A
:103F7000184670470846FCE73EB50446F421029116
:103F800074210191002100910022012109031A48A6
:103F9000FCF752FD0A23012202A91848FDF7FDFC97
:103FA0000A23012269461548FDF712FC012211037C
:103FB0001148FCF741FD68460178FC200140009162
:103FC00068460078204300900022012109030A4836
:103FD000FCF732FD0A23012201A90848FDF7DDFCA8
:103FE0000A23012269460548FDF7D7FC0122110387
:103FF0000148FCF721FD3EBD000400483C000020C4
:104000003EB50446F42102917421019100210091F2
:104010000022012109031B48FCF70EFD0A2301229F
:1040200002A91948FDF7B9FC0A230122694616487E
:10403000FDF7CEFB012211031248FCF7FDFC684698
:104040000178E32001400091A10068460078014317
:10405000C9B200910022012109030A48FCF7ECFCD7
:104060000A23012201A90848FDF797FC0A2301222F
:1040700069460548FDF791FC012211030148FCF750
:10408000DBFC3EBD000400483C0000203EB5044679
:10409000F521029175210191002100910022012159
:1040A00009031B48FCF7C8FC0A23012202A919488E
:1040B000FDF773FC0A23012269461648FDF788FBC9
:1040C000012211031248FCF7B7FC68460078C106CC
:1040D000C90E00916101684600780143C9B20091A0
:1040E0000022012109030A48FCF7A6FC0A23012249
:1040F00001A90848FDF751FC0A2301226946054839
:10410000FDF74BFC012211030148FCF795FC3EBD75
:10411000000400483C0000203EB50446F421029112
:1041200074210191002100910022012109031B4803
:10413000FCF782FC0A23012202A91948FDF72DFC95
:104140000A23012269461648FDF742FB01221103AA
:104150001248FCF771FC68460078C106C90E009150
:104160006101684600780143C9B200910022012133
:1041700009030A48FCF760FC0A23012201A9084848
:10418000FDF70BFC0A23012269460548FDF705FCF3
:10419000012211030148FCF74FFC3EBD000400481A
:1041A0003C000020000000000000000001020304A9
:1041B000060708090000000001020304DC410008B2
:1041C000000000202C000000A4290008084200087C
:1041D0002C000020FC040000B429000800000000AE
:1041E00000000000000000000000000000000000CF
:1041F00000000000000000000000000004000000BB
:084200000100000000127A0029
:04000005080000C12E
:00000001FF
